:100000000C94EE060C9416070C9416070C94160725
:100010000C9416070C9416070C9416070C941607EC
:100020000C9416070C9427270C94DB270C949F271D
:100030000C9416070C9416070C9416070C941607CC
:100040000C9416070C9416070C9416070C941607BC
:100050000C9416070C9416070C9416070C94DD26C6
:100060000C9416070C94AB260C9485260C9416075A
:100070000C9416070C9416070C9416070C9416078C
:100080000C9416070C9416070C9416070C9416077C
:100090000C9416070C9416070C9416070C9416076C
:1000A0000C9416070C9416070C94160743555354DA
:1000B0004F4D004652494354494F4E00494E455218
:1000C0005449410044414D50455200535052494E0D
:1000D0004700574156455B25755D0052414D500024
:1000E000436F6E7374466F726365000A09647572BC
:1000F0003A20257520096761696E3A2025752073BD
:1001000054696D653A20256C75200020506C61792A
:10011000696E67002053656E740020737461747596
:10012000735B307825785D00204672656500252E6A
:1001300032643A20003C25753E2000536574436FBD
:100140006E7374616E74463C25753E3A096D616745
:100150003A256420003C25753E2000F36AF11040EA
:10016000007F003C25753E20206F7574206F66204F
:1001700072616E6765003D3E4D6964693A00F31D2A
:10018000436F6E74696E75650050617573650052DA
:10019000657365740053746F7020416C6C00656EFC
:1001A00061626C65204163740064697361626C65AF
:1001B00020416374004465764374726C5B3078252B
:1001C000785D3A20003C3F3E0044657646656174A8
:1001D0007572654761696E3A202575005049443A49
:1001E000205B617661696C3A25645D20737461748B
:1001F000653A203078257820206569643C25753E75
:100200002020257300506964537461746520307830
:1002100025303478202D3E20307825303478004346
:100220006F6E6669674368616E6765643A2025642E
:10023000006572726F722073656E64436F6E7472C4
:100240006F6C3A2025640073656E64436F6E747240
:100250006F6C53747265616D3A00756E68616E649F
:100260006C6564204765745265706F7274282564EC
:1002700029003C3C2D2D204374726C5265713A75F7
:100280006E68616E646C65640073697A653A2025F6
:10029000640005010904A10105018501A1020930DD
:1002A0000931093216000026FF03751095038102FB
:1002B0000502150026FF00A10009C809C409C509E7
:1002C000BB750895048102C00509190129081500AC
:1002D000250175019508550065008102C0050F09CB
:1002E00021A102850109221501252835014528751E
:1002F00008950191020925A102092609270930095B
:1003000031093209330934094009410942094309D5
:1003100028250C450C15013501750895019100C083
:100320000950095409511500261027350046102799
:1003300066031055FD751095039102550066000087
:1003400045000952150026FF007508950191020924
:1003500053150125087508950191020955A102055B
:10036000010930093195021500250175019102C07E
:10037000050F095695019102950591030957A102B0
:100380000B01000A000B02000A0066140055FE155E
:100390000026B400350047A08C00006600007508F8
:1003A000950291025500660000C009A7660310552A
:1003B000FD150026FF7F350046FF7F7510950191E2
:1003C000026600005500C0050F095AA10285020906
:1003D0002215012528350145287508950191020946
:1003E0005B095D1500267F0095029102095C095E9C
:1003F00066031055FD26FF7F46FF7F75109102456D
:10040000006600005500C0095FA10285030922159E
:100410000125283501452875089501910209231504
:100420000025037504950191020958A1020B0100F2
:100430000A000B02000A00750295029102C00960D1
:100440001580257F7508950191020961096209638C
:100450000964150025647508950491020965150065
:100460002564750895019102C0096EA102850409F1
:1004700022150125283501452875089501910209A5
:10048000701500267F00750895019102096F15808F
:10049000257F95019102097166140055FE1500260D
:1004A000FF00350047A08C000095017508910209F6
:1004B0007226FF7F46FF7F66031055FD751095017C
:1004C00091026600005500C00973A102850509224A
:1004D00015012528350145287508950191020970F7
:1004E00016F0D826102736F0D8461027751095013B
:1004F0009102C00974A1028506092215012528353B
:100500000145287508950191020975097615802520
:100510007F750895029102C00977A102850709221B
:10052000150125283501452875089501910209789E
:10053000A1020979097A097B15012503750895013E
:100540009100C0097C150026FF00350046FF009190
:1005500002C00990A102850809222528150135014C
:100560004528750895019102C00996A102850909DF
:100570009709980999099A099B099C1501250675FF
:100580000895019100C0097DA102850A097E150028
:10059000267F00750895019102C00968A102850BAC
:1005A0000922150125283501452875089501910274
:1005B000096C150026102735004610277510950187
:1005C000910209691581257F350046FF0075089560
:1005D0000C920201C00966A102850C0501093009CF
:1005E000311581257F350046FF007508950291027F
:1005F000C0050F096BA102850D09221501252835BB
:10060000014528750895019102096D150026FF0026
:10061000350046FF007508950191020951660310E7
:1006200055FD150026FF7F350046FF7F75109501AB
:1006300091025500660000C0050F0992A1028502D3
:10064000099F09A009A409A509A6150025013500DF
:1006500045017508950581029503810309941500EC
:100660002501350045017501950181020922150119
:10067000252835014528750795018102C0050F0918
:10068000ABA10285050925A1020926092709300920
:100690003109320933093409400941094209430942
:1006A00028250C450C1501350175089501B100C0D0
:1006B0000501093B150026FF01350046FF01750ABB
:1006C0009501B1027506B101C0050F0989A1028526
:1006D000060922252815013501452875089501B11F
:1006E00002098BA102098C098D098E25031501359C
:1006F00001450375089501B100C009AC150027FF3D
:10070000FF0000350047FFFF000075109501B100A4
:10071000C0050F097DA1028503097E267F007508AB
:100720009501B102C0097FA10285070980098009EE
:100730008126FD7F95037510B10209A8A102092148
:10074000095A095F096E09730974096B950726FF39
:10075000007508B102098326FF0046FF0075089561
:1007600001B10209A909AA950275011500250135F3
:10077000004501B10275019506B103C0C0C0090270
:100780002900010100C0320904000002030000003A
:1007900009211001000122EC040705810320001447
:1007A0000705020320000A1201100100000008EBF7
:1007B0000337801000010203013C2D2D20756E6867
:1007C000616E646C65643A00202F496E74657266D0
:1007D0006163653A00202F5265706F72743A200091
:1007E000202F4849443A200018034800490044009B
:1007F00044004500410044004200450045004600D9
:1008000000004C034D00530020005300570020000F
:1008100077006800650065006C00200077004600E6
:100820004600420020006F006E0020004E00650070
:10083000630072006F0077006100720065002000A5
:1008400061006400610070007400650072000000C7
:1008500026037000650065007700650065002E00C6
:10086000680061006E006E006F0076006500720027
:100870002E0064006500000004030904202F537457
:1008800072696E673A00202F436F6E663A00202F20
:100890004465766963653A0043425F5553425F475A
:1008A0006574446573637228547970653A202564D1
:1008B0002C6E756D3A2025642900436F6E6E65635A
:1008C000743A6576656E7400446973636F6E6E6525
:1008D00063743A6576656E74006465636F64696E0F
:1008E00067206661696C65642025642074696D65A4
:1008F0002873290053774646423A3A696E69742054
:10090000646F6E65202D206465765F737461746515
:100910003A202558200053774646423A3A636F6E94
:100920006E65637465643A202573006465636F6463
:10093000696E67206661696C65642025642074694E
:100940006D6528732920207061636B65742E73694F
:100950007A653A202564000000000200090F0000BB
:10096000030401000C000000000000000000000073
:100970000000000000006462673A207472756E63C4
:100980006174656420696E70757400644469666D95
:100990007454752100636C72000973743A20253415
:1009A0006420743A20253464206163633A20252E44
:1009B0003375206272616B653A20252E33750058BD
:1009C0003A20252E347520593A20252E3475205A88
:1009D0003A20252E347520423A203078253032587E
:1009E0002000096672696374696F6E3A202575206C
:1009F000252509206761696E3A202533750009664F
:100A00006F7263653A2025337509665F6469723ACF
:100A10002025337520282563290900647276206615
:100A2000616C73656C792061636B73206F6E202538
:100A3000750046464220696E7075742069676E6F56
:100A4000726564287766622B313A2564293A005230
:100A500065706F72745B25645D3A206F76657272A3
:100A6000756E3A2077666F723A202564207472653D
:100A700061643A2025640044657669636520636F8C
:100A80006E666967757265643B20257320686561D1
:100A9000702028733A25702920737461636B3A20A3
:100AA00025703A2066726565206D656D3A20257562
:100AB00000616C6C6F6345423A206569643A202599
:100AC0007520747970653A20257500206C6F61641B
:100AD0005F737461743A20257500437265617465B3
:100AE0003C25753E20004352454154452825752933
:100AF00000756E68616E646C656420536574526540
:100B0000706F7274282564290045666665637454A5
:100B100061626C653A00202530327800756E6B6E2C
:100B20006F776E20636F6D6D616E6400436F6D2033
:100B3000636D643A3D2725632720646174613A0040
:100B4000536574437573746F6D466F7263650053BC
:100B50006574446F776E6C6F6164466F7263655342
:100B6000616D706C6500536574437573746F6D4689
:100B70006F726365446174610044657669636547BB
:100B800061696E3A2025750020756E737570706FFF
:100B9000727465643A20257500556E6B6E6F776EC2
:100BA000206F702025750053746F7000536F6C6F49
:100BB000005374617274006C6F6F703A0045666622
:100BC0006563744F703C25753E3A202575200009F9
:100BD00073746172743A20256420656E643A20252E
:100BE000640053657452616D703C25753E3A200077
:100BF000536574466F7263653C25753E206D616771
:100C00006E69747564653A2025640009616D703AF7
:100C10002025337520705F743A20253575202078A3
:100C20005F6F66663A202535752020795F6F6666AE
:100C30003A2025336400536574506572696F643CD3
:100C400025753E3A00536574436F6E646974696F2D
:100C50006E3C25753E20706172616D426C6F636BF6
:100C60003A203078257800536574456E766C6F7045
:100C70003C25753E20000605030204050508090A07
:100C80000B0C092079313A202533752079323A202E
:100C9000253375207478313A2535752020747832E3
:100CA0003A253575003C25753E200009206E6567A4
:100CB000436F6566663A20253475096E6567536132
:100CC000743A20253375096465616442616E643A43
:100CD000202564000920706F73436F6566663A20B3
:100CE00025347509706F735361743A202533750983
:100CF00063704F66667365743A202564003C257501
:100D00003E2000637573746F6D206566666563745D
:100D10000065417869733A203078257820646972DB
:100D20003A20257520207344656C61793A20257539
:100D3000206D73005365744566666563743C257564
:100D40003E3A20747970653A202575206475726189
:100D50003A202575206761696E3A2025752000F0DC
:100D600000010A155365745265706F72743A00047D
:100D70000404040403040502020202040302020242
:100D8000020606060606060404020202040404081B
:100D90000201104080401020408040800802040181
:100DA00080402010020110801020404020000000F0
:100DB00000250028002B002E003100000000002438
:100DC0000027002A002D003000000000002300262C
:100DD0000029002C002F00005629813111241FBE4C
:100DE000CFEFDAE0DEBFCDBF12E0A0E0B1E0EEE38E
:100DF000FDE602C005900D92AE34B107D9F726E0AA
:100E0000AEE4B2E001C01D92A432B207E1F716E0F1
:100E1000CDEED6E004C02197FE010E942636CC3EDE
:100E2000D107C9F70E94192B0C9492360C9400003C
:100E3000FC0184910895FC0180818F770895FC0165
:100E400080810895AF92BF92CF92DF92EF92FF928E
:100E50000F931F93CF93DF936C017B018B01040FE2
:100E6000151FEB015E01AE18BF08C017D10759F07E
:100E70006991D601ED91FC910190F081E02DC601C0
:100E80000995892B79F7C501DF91CF911F910F91BA
:100E9000FF90EF90DF90CF90BF90AF900895FC014E
:100EA000538D448D252F30E0842F90E0821B930BCF
:100EB000541710F0CF96089501970895FC01918D75
:100EC000828D981761F0A28DAE0FBF2FB11D5D9678
:100ED0008C91928D9F5F9F73928F90E008958FEF1A
:100EE0009FEF0895FC01918D828D981731F0828DCE
:100EF000E80FF11D858D90E008958FEF9FEF089525
:100F0000FC01918D228D892F90E0805C9F4F821B88
:100F100091098F739927089585EE94E00E948007C8
:100F200021E0892B09F420E0822F089580E090E0F1
:100F3000892B29F00E948C0781110C9400000895E0
:100F4000FC01A48DA80FB92FB11DA35ABF4F2C913E
:100F5000848D90E001968F739927848FA689B78935
:100F60002C93A089B1898C9182748C93938D848DFC
:100F7000981306C00288F389E02D80818F7D8083DD
:100F80000895EF92FF920F931F93CF93DF93EC019D
:100F900081E0888F9B8D8C8D981319C0E889F98921
:100FA000808185FF14C09FB7F894EE89FF89608324
:100FB000E889F9898081827480839FBF81E090E015
:100FC000DF91CF911F910F91FF90EF900895F62E32
:100FD0000B8D10E00F5F1F4F0F731127E02E8C8DCC
:100FE0008E110CC00FB607FCFACFE889F989808111
:100FF00085FFF5CFCE010E94A007F1CFEB8DEC0F5E
:10100000FD2FF11DE35AFF4FF0829FB7F8940B8F2D
:10101000EA89FB8980818062CFCFCF93DF93EC0197
:10102000888D8823B9F0AA89BB89E889F9898C91D0
:1010300085FD03C0808186FD0DC00FB607FCF7CF8C
:101040008C9185FFF2CF808185FFEDCFCE010E948C
:10105000A007E9CFDF91CF910895CF93DF9390E080
:10106000FC01E257F24F24918159924FFC01849187
:101070008823D1F090E0880F991FFC01E554F24FCE
:10108000A591B491FC01E355F24FC591D491611142
:101090000EC09FB7F8948C91E22FE0958E238C932D
:1010A0002881E223E8839FBFDF91CF9108958FB716
:1010B000F894EC91E22BEC938FBFF6CF3FB7F89406
:1010C0008091BD029091BE02A091BF02B091C0027A
:1010D00026B5A89B05C02F3F19F00196A11DB11D93
:1010E0003FBFBA2FA92F982F8827BC01CD01620FCF
:1010F000711D811D911D42E0660F771F881F991F8A
:101100004A95D1F708958F929F92AF92BF92CF9256
:10111000DF92EF92FF924B015C010E945E086B012F
:101120007C010E945E086C197D098E099F09683E4A
:10113000734081059105A8F321E0821A9108A10866
:10114000B10888EEC80E83E0D81EE11CF11C8114A2
:101150009104A104B10429F7FF90EF90DF90CF90A4
:10116000BF90AF909F908F9008952FB7F8946091A3
:10117000B9027091BA028091BB029091BC022FBF5C
:1011800008952091C3023091C4022817390771F4E1
:101190009091C1028091C202981741F0E091C10282
:1011A000F0E0E858FD4F808190E008958FEF9FEFC9
:1011B00008950895EF92FF920F931F93CF93DF93BB
:1011C000DC015C96ED90FC905D97E114F10479F4FC
:1011D00081E090E013969C938E93129790E080E0CC
:1011E000DF91CF911F910F91FF90EF90089551964D
:1011F000ED91FC91529750968C915097982F909525
:101200000FB75E962C915E97122F127021FD60959C
:10121000F8942081112319F1282B2083E7012197CD
:10122000F1F728E0462F50E0308160FF1AC0382BDC
:101230003083E7012197F1F7BA0175956795215041
:1012400089F7112381F08081892380830FBF5C9609
:101250008D919C910197F1F781E090E0C1CF292316
:10126000DCCF3923E5CF9081892BEFCF2091C302CA
:101270003091C4022817390771F48091C20220917D
:10128000C10290E0805C9F4F821B910960E470E096
:101290000E941236089590E080E008952091C302E4
:1012A0003091C40228173907B9F49091C102809196
:1012B000C202981789F0E091C102F0E0E858FD4FB2
:1012C00080812091C10230E02F5F3F4F2F73332781
:1012D0002093C10290E008958FEF9FEF089590E072
:1012E00080E0089525B1982F9170922795B99BB110
:1012F000807289278BB988B188B908952F923F925F
:101300004F925F926F927F928F929F92AF92BF9215
:10131000CF92DF92EF92FF920F931F93CF93DF93C1
:10132000CDB7DEB72B970FB6F894DEBF0FBECDBF9B
:101330007A8769873A018230910509F460C02CF4FC
:10134000019709F48DC080E0EDC08330910509F468
:101350002AC20497C1F7E985FA85EC5BFF4F20812B
:101360002B3011F0213279F7622F70E081E290E0AA
:101370000E941236FB0144244394512C63307105C2
:1013800019F4B7E04B2E512CA985BA8510E000E086
:10139000812C912CA12CB12CC12CD12CE12CF12C25
:1013A000222E312C9F01200F311F3A832983CD013A
:1013B00029853A85821B930B8215930508F0FAC2A2
:1013C0008D9190E084219521192F110F110B9C0113
:1013D000412F512F612F712F812F912F0E94333672
:1013E000282939294A295B296C297D298E299F2999
:1013F00049015A016B017C0109811A81D3CFE9852A
:10140000FA85EC5BFF4F8080A82CB12CE985FA852A
:10141000B0E0A0E01986912CC12CD12CE12CF12C4C
:1014200010E01B86AA15BB0508F097C0219121701A
:1014300030E040E050E060E070E080E090E00A2FB3
:101440000E9433360985022B0987932AC42AD52A9C
:10145000E62AF72A182B2B85292B2B871196E2CF0A
:10146000A985BA85AC5BBF4F8C918F3009F06BCFEB
:10147000A985BA859D01215F3F4F90E08D918170D4
:10148000482F49272A173B0709F065C089135BCF0E
:10149000A985BA85149690E080E02D912095022FC1
:1014A000017010E0A801082E02C0440F551F0A94D5
:1014B000E2F7F30122893389242B352B338B228BDE
:1014C00001968A30910549F7E985FA85A381B0E054
:1014D00011968281A81BB1092FEF33E00E942C36B0
:1014E00042E0C42ED12CE12CF12CA70196010E94E0
:1014F0006C35D3012D933C93E985FA85A081B0E04A
:1015000011968181A81BB1092FEF33E00E942C3680
:10151000A70196010E946C35D30113963C932E933C
:10152000129781E02B960FB6F894DEBF0FBECDBFA9
:10153000DF91CF911F910F91FF90EF90DF90CF90AF
:10154000BF90AF909F908F907F906F905F904F90E3
:101550003F902F900895942F91CF30E48312F3CED3
:1015600029852078392D30784C2D40785D2D5078A4
:101570006E2D60787F2D7078812F80789B85907894
:101580002038310541055105610571058105910539
:1015900009F0D9CEB985B9839A82CB82DC82ED82FB
:1015A000FE821F83EB85E887F0E0E0E089819A8185
:1015B0008F709927E80FF91F29813A814B815C814F
:1015C0006D817E818F81988504E00E944E3629834B
:1015D0003A834B835C836D837E838F839887A0E0FF
:1015E0000E94693619F7EF7009F0ADCE2985392DC3
:1015F000A601B701812F9B8506E20E944E3650E07E
:10160000422F4170FA01F695FE2FEE27F795E795E8
:101610002985392DA601B701812F9B8508E00E94FD
:101620004E3650E0422F4F77E42BF52BE095F095A6
:10163000D3015396FC93EE9352972985392DA60139
:10164000B701812F9B8503E00E944E3650E0422F68
:101650004770FA01F695FE2FEE27F795E795298555
:10166000392DA601B701812F9B8500E10E944E36DE
:1016700050E0422F4F77E42BF52B1196FC93EE931D
:1016800030E029852770F901F695FE2FEE27F795B2
:10169000E7952985392DA601B701812F9B8508E1A2
:1016A0000E944E3650E0422F4F77E42BF52B1396D5
:1016B000FC93EE9312972985392DA601B701812F4E
:1016C0009B8503E20E944E36E22F30E040E050E07E
:1016D0002E2F237019012A0127E0220C331C441CF1
:1016E000551C2A95D1F72985392DA601B701812FDF
:1016F0009B8508E20E944E36E22F30E040E050E049
:101700002E2F2F772229332944295529AFEFB3E013
:101710000E948B352FEF31E040E050E00E946C35A5
:10172000F301358324832985392DA601B701812F43
:101730009B8500E20E944E3650E0422F4770FA012E
:10174000F695FE2FEE27F795E7952985392DA60109
:10175000B701812F9B8500E30E944E3650E0422F57
:101760004F77E42BF52BD3011796FC93EE93169746
:101770002985392DA601B701812F9B8506E00E949E
:101780004E36E22FE170EE0FEE0FEE0F2985392D68
:10179000A601B701812F9B850CE30E944E36E22BF8
:1017A0005096EC93BECEE985FA85EC5BFF4F208125
:1017B000822F8F7D803109F0C6CD622F70E080E3EB
:1017C00090E00E941236FB0144244394512C633074
:1017D000710519F4A7E04A2E512CA985BA8510E0AD
:1017E00000E0812C912CA12CB12CC12CD12CE12C0E
:1017F000F12C222E312C9F01200F311F3A83298397
:10180000CD0129853A85821B930B82159305F8F447
:101810008D9190E084219521192F110F110B9C01BE
:10182000412F512F612F712F812F912F0E9433361D
:10183000282939294A295B296C297D298E299F2944
:1018400049015A016B017C0109811A81D4CF9401AD
:10185000A501B601C70100E20E944E3629833A83F2
:101860004B835C8389819A81AB81BC8188259925D2
:10187000AA25BB25AD016627772784279527A627AC
:10188000B727492F5A2F6B2F772784279527A6270D
:10189000B727AC01BD0134E076956795579547951C
:1018A0003A95D1F784279527A627B727AC01BD0124
:1018B000E2E07695679557954795EA95D1F78427A5
:1018C0009527A627B727AC01BD0176956795579553
:1018D0004795842780FF37CD9401A501B601C70144
:1018E00009E00E944E36832F8370D3012C9311960A
:1018F0008C9311979401A501B601C70103E10E94E1
:101900004E36832F837012962C93129713968C93D6
:101910009401A501B601C70104E20E944E3660E0C1
:1019200090E080E0722F7F73AFEFB3E0272F362F68
:10193000492F582F0E948B352FE330E040E050E0D4
:101940000E946C35F301358324839401A501B6010F
:10195000C7010DE10E944E3660E090E080E0722FFA
:101960007F77AFEFB3E0272F362F492F582F0E94F4
:101970008B352FE730E040E050E00E946C35D3011A
:1019800017963C932E9316979401A501B601C701B3
:101990000AE20E944E362F7050962C938982B92D00
:1019A000B170BA8389819A8180959095F301938B68
:1019B000828BB7CD9401A501B601C70100E20E9458
:1019C0004E3629833A834B835C8389819A81AB812C
:1019D000BC8188259925AA25BB25AD0166277727D7
:1019E00084279527A627B727492F5A2F6B2F7727AC
:1019F00084279527A627B727AC01BD01E4E076959B
:101A0000679557954795EA95D1F784279527A62797
:101A1000B727AC01BD01F2E07695679557954795DC
:101A2000FA95D1F784279527A627B727AC01BD01E2
:101A30007695679557954795842780FF84CC892DA7
:101A40008370D3018C9211968C939401A501B601F9
:101A5000C7010AE00E944E3660E090E080E0722FFD
:101A60007F73AFEFB3E0272F362F492F582F0E94F7
:101A70008B352FE3222E312C412C512CA2019101C8
:101A80000E946C35F301338322839401A501B601D2
:101A9000C70100E10E944E3660E090E080E0722FC6
:101AA0007F73AFEFB3E0272F362F492F582F0E94B7
:101AB0008B35A20191010E946C35D30115963C93A0
:101AC0002E9314979401A501B601C70106E10E9467
:101AD0004E361A82298389819A81809590955396F2
:101AE0009C938E9352971DCD803189F038F48B30C2
:101AF00059F08F3091F090E080E00895803339F014
:101B0000803441F08132B9F784E090E0089583E0B9
:101B100090E0089582E090E0089581E090E00895DB
:101B200008950895FC01868997890197843091056D
:101B300040F4880F991FFC01E15BFE4F8081918189
:101B4000089587E591E00895EF92FF920F931F9318
:101B5000CF93DF93FC01A489B5899C9182898095FC
:101B600089238C938BE99FE00197F1F7F8947F012B
:101B700083E7E80EF11C4BE851E0C481D5818881F0
:101B800092818923C489D58998812289922B98834F
:101B9000811120C0C481D5818881728187232AEF79
:101BA00030E098819723981719F0911113C080E0C5
:101BB00021503109B1F7C489D589988182898095EE
:101BC00089238883613009F440C0CA010197F1F785
:101BD00061E0D3CFD7011C92E7019881943458F784
:101BE00004811581D8018C9132818323CAEFD0E022
:101BF000D8012C912323281719F0211106C080E069
:101C00002197B1F7D8CF32E014C0C085D185788153
:101C1000C485D5853881C089D189288186852823C6
:101C20008681782381E009F480E07285372359F7B3
:101C300030E0832B211124E0EF01C90FD11D822B4D
:101C40008FA79F5FE7019883C7CFED58FF4F808133
:101C50007894DF91CF911F910F91FF90EF900895AD
:101C6000CF93DF93DC015496ED91FC9155979081D1
:101C700052968C9152978095892380838BE99FE0BF
:101C80000197F1F7F894C5E4D1E043E250E02991DF
:101C900039912115310519F15496ED91FC91559723
:101CA000808152969C91529789278083CA0101971F
:101CB000F1F75496ED91FC915597808152969C9145
:101CC0005297892780832230310508F3F901EE0FFE
:101CD000FF1FEE0FFF1F35973197F1F7D8CF78949C
:101CE000DF91CF910895489608950F931F93CF9356
:101CF000DF93EC011EA661E00E94A40D8E010D5839
:101D00001F4FF80180810E94740D9F8B8E8B8E89EE
:101D10009F89892B41F4CE010E94300E61E0CE01F3
:101D20000E94A40DEECF81E0DF91CF911F910F9122
:101D30000895FC016115710529F49091E8009B77E5
:101D40009093E8006115710531F48091E80080FFFF
:101D50001FC080E008958091EF02882319F185303B
:101D6000E9F08091E80083FD1BC08091E80082FFCC
:101D7000E9CF2091F3008091F200322F282F232BFE
:101D8000E1F28091F10081936150710991F7D5CF13
:101D90008091EF02882331F08530B9F683E0089511
:101DA00081E0089582E00895FC018091660290919F
:101DB000670286179707A0F06115710529F49091C5
:101DC000E8009E779093E80090E06115710551F46A
:101DD000911108C08091E80082FF35C080E008952D
:101DE000BC01F2CF8091EF028823C9F18530C9F19F
:101DF0008091E80083FD31C08091E80082FDEACF48
:101E00008091E80080FFE1CF2091F3008091F20003
:101E1000322F282F6115710519F02830310558F03F
:101E200091E02830310509F090E02091E8002E770C
:101E30002093E800CACF81918093F100615071092D
:101E40002F5F3F4FE7CF8091EF02882341F085302D
:101E500041F08091E80083FFBDCF81E0089582E0EA
:101E6000089583E008952091E4003091E50085E62F
:101E70009091EC0090FF06C09091E80090FF06C0A2
:101E800080E008959091E80092FDFACF9091EF02E2
:101E9000992391F0953091F09091EB0095FD10C051
:101EA0004091E4005091E5002417350709F3815073
:101EB0009A01F1F684E0089582E0089583E00895A0
:101EC00081E00895EF92FF920F931F93CF937C01CF
:101ED0008B010E94330FC82F882371F08C2FCF9174
:101EE0001F910F91FF90EF900895F70181917F016D
:101EF0008093F100015011090115110579F38091CA
:101F0000E80085FDF2CF8091E8008E778093E800AD
:101F10000E94330F882381F3C82FE0CFCF92DF9246
:101F2000EF92FF920F931F93CF93DF937C01EB010E
:101F30008A014115510539F0FA0180819181C81B50
:101F4000D90BE80EF91ED12CC12C209711F480E09A
:101F500014C08091E80085FD1EC08091E8008B7759
:101F60008093E8000115110589F0F80180819181C5
:101F7000C80ED91ED182C08285E0DF91CF911F911A
:101F80000F91FF90EF90DF90CF9008950E94330F54
:101F90008823D9F2F2CF8091F100F70181937F017C
:101FA0002197FFEFCF1ADF0AD0CF8091600287FF21
:101FB00013C08091E80082FF06C08091E8008B7713
:101FC0008093E80004C08091EF028111F2CF089560
:101FD0008091EF028823D9F38091E80080FFF8CF49
:101FE0008091E8008E77ECCF982F973020F0809387
:101FF000E90081E008959093E900242F762F50E0C6
:10200000981731F07091EC002091ED005091F000A4
:1020100021FD02C09F5FE9CF3091EB003E7F3093FE
:10202000EB003091ED003D7F3093ED003091EB00FF
:1020300031603093EB007093EC002093ED005093EF
:10204000F0002091EE0027FDE5CF80E00895CF93CA
:10205000DF93FB01C0916802D091690240916A024E
:1020600050916B0220916C0230916D02BE0175950A
:10207000679575956795A0917402823089F46083A5
:1020800055954795559547954183359527953595B0
:1020900027952283A38384E090E0DF91CF91089578
:1020A000D183C083538342833583248360586683FE
:1020B00087819085891B990B81386FEF960714F4FF
:1020C00081E89FEF8038910514F08FE790E08187D9
:1020D0008FEF93E0BC01641B750BAB0163E0569579
:1020E00047956A95E1F74783821B930B73E09695BA
:1020F00087957A95E1F78087A2878BE090E0CDCF36
:1021000025B1982F9170922795B99BB1807289273C
:102110008BB988B188B90895813029F008F44AC094
:102120008830A0F008958FE780935F04809359046E
:1021300010925B0410925A048EE69EE190935E0426
:1021400080935D048DE78093580408959FE79093F2
:10215000610490935B0410925D0410925C04909370
:1021600058049EE390936404823091F410925A04D0
:10217000109259048EE69EE19093600480935F0470
:10218000909363048093620480E4809357040895DD
:1021900080E090E490935A048093590485E692E19C
:1021A0009093600480935F0484E793E090936304CA
:1021B000809362040895982F80ED890F8A3070F023
:1021C0008FE9890F863018F489EA890F08958FEB1B
:1021D000890F863010F489ECF8CF8FEF0895909135
:1021E000C80095FFFCCF8093CE0008958091120126
:1021F000882331F08DE00E94EF108AE00C94EF10FC
:102200000895CF93DF93C1E9D4E08991882341F009
:102210008A3019F40E94F610F8CF0E94EF10F5CF23
:10222000DF91CF91089580FD289A80FF28989BB177
:102230009F7D282F2072922B9BB998B19F77807831
:10224000892B88B90895CF93DF93FC01019000207A
:10225000E9F73197AF01481B590BBC0185EE94E0BB
:102260000E942207EC0142E050E06AEB71E085EE4B
:1022700094E00E9422078C0F9D1FDF91CF9108955B
:10228000EBE1F3E086E791E0DF019C011D92215034
:102290003040E1F782E087838AE0868382E190E044
:1022A000938382830895E82FF0E0379693E0F595C5
:1022B000E7959A95E1F7E15BFB4F982F977021E046
:1022C00030E001C0220F9A95EAF7209590812923EA
:1022D000208396E0899FF0011124E154FC4FDF0137
:1022E0001D929A95E9F708950C9439320C9439327D
:1022F000CF93DF93CDB7DEB79E012B5F3F4FF90140
:10230000419151919F0164E570E081E994E00E9460
:10231000C23281E994E00E942311DF91CF910895A8
:10232000CF92DF92FF920F931F93CF93DF93CDB79E
:10233000DEB764970FB6F894DEBF0FBECDBF8C0139
:1023400061E00E94A40DCE0101966C0184E1D601EA
:102350001D928A95E9F7B801615D7F4FA601F801EA
:10236000868997890E947E09F82E882319F184E1D5
:10237000F601D801589601900D928A95E1F7D8019F
:102380009E961C929E979A968D919C919B979D9656
:102390009C938E939C978F2D64960FB6F894DEBF16
:1023A0000FBECDBFDF91CF911F910F91FF90DF90B6
:1023B000CF900895F80186A58F5F86A7882361F0E6
:1023C0001F928F9389ED98E09F938F930E947811CD
:1023D0000F900F900F900F90D8019E968C919E9722
:1023E0008630C8F2ED91FC910190F081E02DC8019A
:1023F0000995F82ED0CFCF93DF93CDB7DEB79E01EE
:102400002B5F3F4FF901419151919F0164E570E0CD
:1024100081E994E00E94C2320E940111DF91CF91C4
:102420000895EFEFE80F25EC31E0EC3038F4F0E000
:10243000EE0FFF1FE35DFE4F208131811F928F93CE
:102440003F932F930E94FB110F900F900F900F90CE
:102450000895EF92FF920F931F93CF93DF932091F4
:102460001201222349F1042F172FF62E9F938F93E9
:102470000E94FB11CF2DD12F0C0F1D2F111D0F907E
:102480000F9086E1E82E8BE0F82EC017D10741F4BB
:10249000DF91CF911F910F91FF90EF900C94F61068
:1024A00089911F928F93FF92EF920E94FB110F90E0
:1024B0000F900F900F90E9CFDF91CF911F910F9167
:1024C000FF90EF9008959F92AF92BF92CF92DF92CC
:1024D000EF92FF920F931F93CF93DF93EC018B0149
:1024E0006A018091120182FF16C0962E4851574012
:1024F000A9F586E791E09F938F930E94FB110F90BF
:102500000F90F12CE12C86E1A82E8BE0B82EE91477
:1025100098F00E94F6100C0F1D1FC017D10729F567
:10252000DF91CF911F910F91FF90EF90DF90CF90AF
:10253000BF90AF909F900895FE01EE0DFF1DE491B6
:102540001F92EF93BF92AF920E94FB11EFEFEE1A32
:10255000FE0A0F900F900F900F90D9CF462FBE011B
:1025600086E791E00E942912D6CFCE01F6010995A7
:10257000682F82E895E00E94DA082196CECFCF93AB
:10258000DF9300D01F92CDB7DEB792EF99838B8394
:10259000962F9295907F682F692762956F702DE036
:1025A00062278F706827692B6A834FE157E063E0E9
:1025B00070E0CE0101960E9463120F900F900F9071
:1025C000DF91CF910895CF93DF9300D000D000D05A
:1025D000CDB7DEB791EF99836B838C834D835E8398
:1025E000450F4F50840F6F7B860F81958F778A83BD
:1025F0004FE157E066E070E0CE0101960E94631261
:1026000026960FB6F894DEBF0FBECDBFDF91CF91F7
:102610000895CF93DF93CDB7DEB79E012B5F3F4F79
:10262000F901419151919F0164E570E081E994E0E5
:102630000E94C2320E9401110E94F610DF91CF91D8
:1026400008950F931F93CF93DF938C01D62FC72F3D
:1026500066E070E080E090E00E9483088091EB00EB
:1026600085FF05C08091EB0080618093EB00809135
:10267000E800877F8093E8006D2F7C2FC8010E94BF
:10268000D40EC82F8091E8008B778093E80080916A
:10269000120186FF06C04D2FB80187E492E00E9428
:1026A0002912CC2361F01F92CF9381E392E09F9394
:1026B0008F930E9409130F900F900F900F908091AD
:1026C000EB0080628093EB008C2FDF91CF911F9104
:1026D0000F9108959EEF980F9A3080F08F3F61F030
:1026E0001F928F9383E691E09F938F930E9409132B
:1026F0000F900F900F900F9080E0089581E0089563
:10270000CF93C82F0E946A13882341F02DE0C29F07
:10271000C00111248D5D9C4FCF91089590E080E021
:10272000FBCF0F931F93CF93C82F61E00E94BF127E
:102730008C2F0E9480138C01FC0110828091220357
:10274000C81710F4C0932203F80183850E94531127
:10275000F80184850E945311809121038F5F80933B
:102760002103CF911F910F910895EF92FF920F9344
:102770001F93CF93DF93E82E8B01DB011B96EC9127
:10278000B6E0EB9FF0011124E154FC4F0190F08181
:10279000E02DCF01F7FF04C0882799278E1B9F0BE0
:1027A000DFE780319742A9F024E630E0CF01B9019C
:1027B0000E9412364FE7469FC001479F900D11249B
:1027C000843691050CF476C0B9010E941236D62FDA
:1027D000DF77D80119968C91199782FF7EC01A96DF
:1027E0002C91B4E02B9FC001112463E070E00E94A3
:1027F000FE35C1E42E3208F46EC082ED820F8D32B8
:1028000008F063C0C8EBC61B9FE7F92E8091120148
:1028100081FF29C0FF93EF931F92EF928BE391E02A
:102820009F938F930E94FB110F900F900F900F902A
:102830000F900F90EFE780E5FE1285E71F928F93D0
:102840001F92CF931F92DF938EEF99E09F938F9308
:102850000E9409132DB73EB7285F3F4F0FB6F8947B
:102860003EBF0FBE2DBFD8018C9181FF3DC0199690
:102870008C9182FF06C04F2D50E063E48E2D0E94A4
:10288000E3124C2F50E069E48E2D0E94E3124D2F8D
:1028900050E066E48E2D0E94E312D0938B04F092F8
:1028A0008D04C0938C04DF91CF911F910F91FF9005
:1028B000EF900895CF016CE97FEF0E941236469F9A
:1028C000C001479F900D11247FCF2B55C4EB2D32B3
:1028D00008F499CFCCE4C60F97CF8DE7F82ECDE75B
:1028E000F7FF94CFC0E092CFD0935C04F0925804ED
:1028F000C0936004D2CFDF92EF92FF920F931F93A9
:10290000CF93DF93F82E8B01DB011B96EC91B6E0A1
:10291000EB9FF0011124E154FC4FC381D481C639EF
:10292000D10510F4C6E9D0E0C13187E2D80710F034
:10293000C0E1D7E2D80119968C91199782FF05C0A2
:102940001A968C91D12C8B3510F480E4D82E80818E
:10295000F8019085899FC00111246FE770E00E9403
:102960001236E62EE894E7F88091120181FF22C02A
:1029700081810E9411121F92FF9285E391E09F9343
:102980008F930E94FB111F928EE38F931F921F92D1
:10299000DF93CF931F92EF928BE09CE09F938F93F6
:1029A0000E940913ADB7BEB71E960FB6F894BEBF0E
:1029B0000FBEADBFF801808181FF1EC04D2D50E0DC
:1029C00062E48F2D0E94E3124E2D50E067E48F2DBC
:1029D0000E94E312AE016AE08F2D0E94E3124EE3E3
:1029E00050E06BE48F2DDF91CF911F910F91FF90FD
:1029F000EF90DF900C94E312D09257048DE7809310
:102A0000580480E090E490935A0480935904E09233
:102A10005E048EE380936404D0936304C0936204E5
:102A2000DF91CF911F910F91FF90EF90DF9008956C
:102A3000FF920F931F93CF93DF93F82E8B01DB014F
:102A40001B96EC91B6E0EB9FF0011124E154FC4F92
:102A50008181EFE78E9FC001112464E670E00E943F
:102A60001236C0919004C60FCF77C0938E04809128
:102A7000120181FF12C080918F041F928F931F92C9
:102A8000CF9382EE99E09F938F930E9409130F904A
:102A90000F900F900F900F900F90D8018C9181FFA5
:102AA00010C0D0E0AE0163E48F2D0E94E312AE01AE
:102AB00066E48F2DDF91CF911F910F91FF900C94C1
:102AC000E312C0935804DF91CF911F910F91FF90B3
:102AD0000895DF92EF92FF920F931F93CF93DF93AE
:102AE000182FEB011F928F938EE291E09F938F93AB
:102AF0000E94FB1188810F900F900F900F9080FF24
:102B000003C089810E9411128881811110C088E25E
:102B100091E09F938F930E9409130F900F90DF9184
:102B2000CF911F910F91FF90EF90DF9008951F922A
:102B30008F938AE191E09F938F930E94FB1188818C
:102B40000F900F900F900F9081FF08C084E191E0EB
:102B50009F938F930E94FB110F900F90888187FFA6
:102B600008C08BE091E09F938F930E94FB110F9020
:102B70000F908F818F938E818F938D818F938C8116
:102B80008F9388851F928F938B818F938A818F93E8
:102B90008BEE90E09F938F930E940913812F0E94E8
:102BA0008013EC0189812DB73EB7265F3F4F0FB6EA
:102BB000F8943EBF0FBE2DBF883090F4823078F578
:102BC000813009F479C01F928F9388E89BE09F932E
:102BD0008F930E9409130F900F900F900F909FCF2B
:102BE0008B3008F4B0C08B3071F788851F928F93BB
:102BF000EB8596E0E99FF0011124E154FC4F8181BF
:102C00001F928F9382EE99E09F938F930E940913F6
:102C10000F900F900F900F900F900F9080CFEB853B
:102C200006E0E09FF0011124E154FC4F1C858181F6
:102C3000282F082E000C330B3F938F9382811F9215
:102C40008F9384818F9383818F9380811F928F9341
:102C50008BE09CE09F938F930E94091388812DB78E
:102C60003EB7265F3F4F0FB6F8943EBF0FBE2DBF55
:102C700084FF55CF109FF0011124E154FC4F858152
:102C80008F9384818F9383818F9382818F938181AE
:102C90001F928F9380811F928F9382E89CE09F9375
:102CA0008F930E9409138DB79EB70A960FB6F894BA
:102CB0009EBF0FBE8DBF33CF1C851F9280E58F93C3
:102CC0008A851F928F93EB8506E0E09FF001112427
:102CD000E154FC4F8081918199279F938F938EEFD0
:102CE00099E09F938F930E94091388812DB73EB777
:102CF000285F3F4F0FB6F8943EBF0FBE2DBF84FF35
:102D00000ECF109FF0011124E154FC4F85818F9369
:102D100084818F9383818F9382818F9381811F928E
:102D20008F9380811F928F9382E89CE09F938F9373
:102D30000E9409138DB79EB70A960FB6F8949EBFEE
:102D40000FBE8DBFECCEEB8506E0E09FF0011124B5
:102D5000E154FC4F1C85D580E480F2808081282FCF
:102D6000082E000C330B3F938F9383811F928F9318
:102D70008181282F082E000C330B3F938F9384ED15
:102D80009CE09F938F930E9409131F92DF921F92E2
:102D9000EF928F2D0F2C000C990B9F93FF928BEAD3
:102DA0009CE09F938F930E94091388812DB73EB7B3
:102DB000205F3F4F0FB6F8943EBF0FBE2DBF84FF7C
:102DC000AECE109FF0011124E154FC4F85818F930A
:102DD00084818F9383818F9382818F9381811F92CE
:102DE0008F9380811F928F9382E89CE09F938F93B3
:102DF0000E9409138DB79EB70A960FB6F8949EBF2E
:102E00000FBE8DBF8CCECF93E9E0F1E087E0DF010C
:102E10001D928A95E9F781E08093090184EF91E0A2
:102E200090930D0180930C0183E0809304016091E5
:102E30000101C1E06623F9F090910501E0910201E2
:102E4000F0910301862F8F70C0E08730A0F442E03C
:102E5000923008F046E028E030E090E02E173F077F
:102E600010F19295907F492B661F6627661F606C54
:102E70000E94F40FC82F42E260EC82E00E94F40F3F
:102E80009091120196FF0DC08C231F928F938FE1BA
:102E900092E09F938F930E9409130F900F900F90D1
:102EA0000F90CF9108959F5F220F331FD7CF43E03C
:102EB00050E06DE774E080E894E00E94753621E010
:102EC0002093E9002091E80025FF6DC0892B09F4CB
:102ED00040C080917D0490917E04A0917F048093F6
:102EE000800490938104A093820450E040E063E06A
:102EF00070E08DE794E00E94620F8091E8008E7789
:102F00008093E8008091120183FF23C080917F04A9
:102F100022EC31E087FF02C02DEB31E03F932F938D
:102F20008F771F928F9380917E041F928F93809151
:102F300021031F928F938CED91E09F938F930E94BA
:102F400009138DB79EB70A960FB6F8949EBF0FBEB1
:102F50008DBF8091890490918A04891721F1909105
:102F6000120193FF0CC01F928F9389EC91E09F9305
:102F70008F930E9409130F900F900F900F908091E4
:102F8000890480938A0483E08093880450E040E0C1
:102F900062E070E088E894E00E94620F8091E800AF
:102FA0008E778093E8000895CF93DF93EC018091B2
:102FB0001B0390911C03D0FF38C0886090931C03C2
:102FC00080931B0380911B0390911C03D5FF2FC09E
:102FD000816090931C0380931B0380915E0290910B
:102FE0005F028C179D0711F00E9457178091120104
:102FF00083FF14C0DF93CF9380915F028F93809102
:103000005E028F9385E092E09F938F930E94091355
:103010000F900F900F900F900F900F90D0935F0232
:10302000C0935E02DF91CF910895877FC7CF8E7FD7
:10303000D0CFCF92DF92EF92FF920F931F93CF9357
:10304000DF936C017C0145E7E40EF11CF701008180
:10305000118162E00E94A40DE601CD58DF4F888106
:10306000863079F5F60187A590E0992786959795A2
:10307000882720A930E0322F22273295307F822BFB
:10308000932B24A9822B21A930E0322F2227330F42
:10309000822B932B22A9F0E42F9F90011124822BE5
:1030A000932BF60123A9F8E02F9F90011124822B86
:1030B000932BF701918380838017910711F00E9471
:1030C000D41762E070E080E090E00E94830881E025
:1030D00090E02881263011F090E080E0DF91CF91E0
:1030E0001F910F91FF90EF90DF90CF9008950F9375
:1030F0001F93CF93DF93EC01FC01EC58FF4F10823C
:103100000E9419188E010B581F4FF8018081918180
:103110000E94D417F8018081918121E02093F80268
:1031200090931C0380931B03E881F9810680F7814B
:10313000E02DCE010995FC0121812F9380818F9391
:1031400086E199E09F938F930E947811F801818125
:103150008F9380818F9384EF98E09F938F930E9449
:1031600078118DB79EB708960FB6F8949EBF0FBE24
:103170008DBFDF91CF911F910F9108950F931F93F2
:10318000CF93DF93EC011EA6FC01EC58FF4F108299
:1031900061E00E94A40D8E010D581F4FF80180813F
:1031A0000E94740D9F8B8E8B8E899F89892BC9F409
:1031B000CE010E94300E61E0CE010E94A40DF80104
:1031C00080810E94740D9F8B8E8B892B69F781E023
:1031D0000E94720964E670E080E090E00E9483083B
:1031E000E3CFCE010E94771881E0DF91CF911F914C
:1031F0000F910895CF92DF92FF920F931F93CF9379
:10320000DF93CDB7DEB764970FB6F894DEBF0FBE7D
:10321000CDBF8C01FC01EC58FF4F8081811182C031
:1032200061E0C8010E94A40DCE0101966C0184E109
:10323000D6011D928A95E9F7A601B801615D7F4F1D
:10324000F801868997890E947E09F82E882309F45F
:1032500041C084E1F601D801589601900D928A95FB
:10326000E1F7D8019E961C929E979A968D919C911B
:103270009B979C01332730937502209374025896D4
:103280002D913C91599730936902209368025A9688
:103290002D913C915B9730936B0220936A025C9670
:1032A0002D913C915D9730936D0220936C029D9619
:1032B0009C938E939C978F2D64960FB6F894DEBFE7
:1032C0000FBECDBFDF91CF911F910F91FF90DF9087
:1032D000CF900895F80186A58F5F86A7843098F077
:1032E000ED58FF4F90811F929F931F928F938BE217
:1032F00099E09F938F930E9478110F900F900F90F9
:103300000F900F900F90D8019E968C919E978830C9
:1033100090F2ED91FC910190F081E02DC8010995AA
:10332000F82EC9CF893080F161E0C8010E94A40D58
:103330006801B3E7CB0ED11CF60180810E94740DA9
:10334000D80157969C938E935697F8018689978952
:10335000892BD1F4C8010E94300E61E0C8010E949F
:10336000A40DD6018C910E94740DF801978B868B69
:10337000892B59F780E20E94720964E670E080E0D0
:1033800090E00E948308E1CFD80156968D919C91E0
:10339000049719F4C8010E947718FF24F3948BCF87
:1033A000CF93C82F0E946A138823B9F0C0937F047B
:1033B000CC2361F08C2F0E948013FC01808187FF59
:1033C00005C080917F04806880937F0480911D03F5
:1033D00080937E04CF910C945717CF9108950F934B
:1033E0001F93CF93DF93182F0E948013EC018881E5
:1033F00087FD16C082FF19C00E94B5080C811D818F
:103400002E813F81DC01CB01800F911FA21FB31FD2
:103410008C839D83AE83BF8388818B7F8860888304
:10342000DF91CF911F910F9108958068888362E0AA
:10343000812F0E94BF120E94B5086C837D838E830A
:103440009F83812FDF91CF911F910F910C94D01901
:10345000CF93C82F0E946A138823A9F08C2F0E9453
:103460008013FC01908197FF09C09F77908314829D
:103470001582168217828C2F0E94D01963E08C2F40
:10348000CF910C94BF12CF910895CF93C2E08C2FAF
:103490000E94281ACF5FCC30D1F7CF9108950197C1
:1034A00008F40895A895EFE9FFE03197F1F700C01F
:1034B0000000F5CF48E157E066E070E08DE591E06F
:1034C0000E94631284E690E00E944F1A48E157E0A0
:1034D00062E070E08BE591E00C94631284E690E08A
:1034E0000E944F1A48E157E062E070E08EE791E0F9
:1034F0000E94631282E390E00E944F1A40E05DE771
:1035000063E481E00E94E3124EE35EE464E481E060
:103510000E94E3124EE35FE265E481E00E94E31261
:103520004DE750E066E081E00E94E31284E690E01F
:103530000E944F1A48E157E062E070E08EE791E0A8
:103540000E9463120E945A1A82E390E00C944F1A70
:10355000CF93FC01C1811F92CF9385EB91E09F93A4
:103560008F930E94FB1182E080937D0410927F0470
:103570000F900F900F900F90C13099F489EA91E06D
:103580009F938F930E94091380911D0390911E03B6
:103590008D7F90931E0380931D030F900F90CF910A
:1035A0000895C23061F48EE991E09F938F930E9459
:1035B000091380917E04826080937E04EECFC33035
:1035C00061F485E991E09F938F930E9409130E9413
:1035D000451A80917E048160EFCFC43099F48FE862
:1035E00091E09F938F930E9409130E94451A0E94B5
:1035F00040110E946E1A0F900F908FE090E0CF91D3
:103600000C944F1AC530E1F489E891E09F938F93B1
:103610000E9409130E94451A80911D0390911E0378
:10362000816090931E0380931D030F900F9048E1DB
:1036300057E062E070E08EE791E0CF910C94631266
:10364000C63009F0ACCF80E891E09F938F930E9441
:10365000091380911D0390911E038E7F90931E038A
:1036600080931D030E946E1A48E157E062E070E00B
:103670008EE791E00E9463120F900F90CF910C940F
:103680005A1A6F927F928F929F92AF92BF92CF926F
:10369000DF92EF92FF920F931F93CF93DF9300D0AF
:1036A000CDB7DEB7F82E8B01EFEFE80FED3008F065
:1036B00012C5F0E0E25AF44E0C9426366B1BEE1D58
:1036C0003D1EB61E071F401F821F08202C203020E1
:1036D00049205B206320DB011196FC908F2D0E9416
:1036E0006A13882309F423C18F2D0E9480135C0183
:1036F000F801838194818F3FFFE79F0708F492C010
:10370000109256041092550420915504309156049D
:10371000D50113963C932E931297F801D1802091F6
:10372000120121FF2DC021851F922F939F938F930C
:1037300082811F928F931F92DF9284E39DE09F937B
:103740008F930E94FB11D8011F968C911F978F9326
:103750001E968C911E978F931C968C911C971F928E
:103760008F931B968C911F928F9381E19DE09F9385
:103770008F930E9409130FB6F894DEBF0FBECDBF22
:103780008D2D0E946A13882309F422C28D2D0E9478
:1037900080137C01D8011B968C911B9782FF05C07A
:1037A000F70181871C968C918287D80119968C919C
:1037B000F7018087808181FF06C04281538160E0EC
:1037C0008D2D0E94E312D8011296EC9180E2809335
:1037D00052048FEF8E0FE0E08C3028F4E82FF0E0F9
:1037E000EA58F34FE491E09353049FE79093540415
:1037F0001092560410925504109257048B3008F022
:10380000DDC1E82FF0E0E95FF34E0C942636CF1CC3
:10381000171CBE1CBE1CBE1CBE1CBE1C5C1D5C1D41
:103820005C1DD31D90935604809355046DCFF70112
:1038300081810E948C10D7018C9184FF04C0B70154
:103840008D2D0E94D530D7011B96EC91B6E0EB9FF1
:10385000F0011124E154FC4F81810081F701918531
:1038600092FF76C0928540E49B3508F040E06FE718
:10387000C62E002E000C110B082E000C990B801B7D
:10388000910B97FF03C09195819591094C01982F59
:103890008695081B110917FF03C0119501951109A1
:1038A000D7018C9181FF5BC050E062E48D2D0E94B6
:1038B000E3124C2D50E063E48D2D0E94E312A4012D
:1038C00067E48D2D0E94E312A8016BE48D2D0E9408
:1038D000E31203E110E0F501808181FD28C0F02EA4
:1038E00048E157E065E070E08FE59DE00E946312DB
:1038F0004BE157E0B80182E594E00E94631287EF44
:103900008A83E2E5F4E080E0FA942FEFF21263C1DB
:1039100081958F7789834FE157E062E070E0CE01B7
:1039200001960E946312D5018C9182608C930F9056
:103930000F90DF91CF911F910F91FF90EF90DF904B
:10394000CF90BF90AF909F908F907F906F90089591
:1039500040E080170CF440E45DE7C52E8ACF409329
:103960005704C092580490935E04009364048EE65A
:103970009EE19093630480936204ABCFF701818151
:103980000E948C10B7018D2D0E947B14D7018C9161
:1039900084FF9FCFB7018D2D0E94D5309ACFB701FC
:1039A0008D2D0E94B513F70181810E948C10D701E3
:1039B0008C9184FF72C01C96EC91B6E0EB9FF001F5
:1039C0001124E154FC4FD70118962C918081289F37
:1039D000C00111243FE7832E912CB4010E941236BE
:1039E000062F0F778181289FC0011124B4010E9406
:1039F0001236162F1F7782809380BFEF8B16BFE79A
:103A00009B0610F0912C812C64807580C301019776
:103A10008E3F9F4720F086EE682E86E1782E8091BB
:103A2000120181FF20C0D70111968C910E941112C2
:103A30001F92DF9285EA9CE09F938F930E94FB1177
:103A40007F926F929F928F921F921F931F920F935C
:103A500082E89CE09F938F930E9409130FB6F8941D
:103A6000DEBF0FBECDBFD7018C9181FF18C0402FA4
:103A700050E064E48D2D0E94E312A40165E48D2DD5
:103A80000E94E312A30167E48D2D0E94E312412FEF
:103A900050E068E48D2D0E94E3120FE01BCF0093ED
:103AA000590490925B0480925A0470925E04609272
:103AB0005D0410935F04F1CFF70181810E948C10A7
:103AC0008091120181FF4EC0D7011B960C91B6E088
:103AD0000B9F8001112401541C4FF70181810E942A
:103AE00011121F92DF928DEF9CE09F938F930E94A3
:103AF000FB11D80115969C9015971496CC901497AD
:103B00001296DC9012978C91282F082E000C330B04
:103B10003F938F9313968C9113971F928F931196C7
:103B20008C91282F082E000C330B3F938F9384ED3C
:103B30009CE09F938F930E9409131F929F921F9264
:103B4000CF928D2D0D2C000C990B9F93DF928BEA59
:103B50009CE09F938F930E9409130FB6F894DEBFE9
:103B60000FBECDBFD7018C9181FF02C00EE0B2CE57
:103B7000109258048DE7809359042EE320935A0441
:103B80009FE390935B0420935C0490935D04809387
:103B90005E0410925F04F7018181883039F78FE26B
:103BA00080935D04E3CFB7018D2D0E941815D801D5
:103BB00019968C9180938F0407E08CCE83E09DE072
:103BC0009F938F930E9409130F900F9000E082CE75
:103BD00010E000E080CE9191890F96CEFB01F1803C
:103BE0008091120181FF2DC01F92FF9287E69CE019
:103BF0009F938F930E94FB11D80117968C91179772
:103C00008F9316968C9116978F9315968C91159786
:103C10008F9314968C9114978F9313968C9113977E
:103C20001F928F9312968C911F928F9382E89CE043
:103C30009F938F930E9409130FB6F894DEBF0FBEB7
:103C4000CDBF8F2D0E946A13882309F470CE8F2D6B
:103C50000E948013FC01A48526E0A29FD0011124BC
:103C6000A154BC4FF801329601900D922A95E1F7CC
:103C7000DC012C9120612C935ACEFB01D1808091E4
:103C80001201827209F446C082811F928F931F92A3
:103C9000DF9285E49CE09F938F930E940913D801E3
:103CA0001896CC9018971796EC9017971596FC904D
:103CB000159713968C911397282F082E000C330B11
:103CC0003F938F9316968C9116971F928F9314960D
:103CD0008C91282F082E000C330B3F938F9384ED8B
:103CE0009CE09F938F930E9409131F92CF921F9283
:103CF000EF928F2D0F2C000C990B9F93FF928BEA64
:103D00009CE09F938F930E9409130FB6F894DEBF37
:103D10000FBECDBF8D2D0E946A13882309F407CEF4
:103D20007801F3E0EF0EF11C8D2D0E948013D80175
:103D300012962C91FC012F30B9F4A38526E0A29FA6
:103D4000D0011124A154BC4FF70101900D922A9586
:103D5000E1F7DC0111962C912B3009F0E8CDBC0184
:103D60008D2D0E941815E3CDA485E8CFFB01D180ED
:103D70008D2D0E9480137C018091120181FF2EC045
:103D80001F92DF9286E39CE09F938F930E94FB112A
:103D9000D80113968C911397282F082E000C330B03
:103DA0003F938F9314968C9114971F928F9316962E
:103DB0008C9116978F9315968C9115978F931296D9
:103DC0008C911F928F938BE09CE09F938F930E9426
:103DD00009130FB6F894DEBF0FBECDBF8D2D0E9424
:103DE0006A13882309F4A3CDF701A38586E0A89F71
:103DF000D0011124A154BC4FF801329601900D92CC
:103E00008A95E1F7B7018D2D0E947B1490CDDB01DF
:103E10001196FC9011978091120181FF15C01396A5
:103E20008C9113978F9312968C918F931F92FF9280
:103E300080EF9BE09F938F930E9409130F900F9048
:103E40000F900F900F900F908F2D0E946A13882370
:103E500009F46DCD8F2D0E948013BC01FC01A38558
:103E600096E0A99FD0011124A154BC4FF8013296CD
:103E700001900D929A95E1F78F2D0E94B51357CDC1
:103E8000DB011196FC908F2D0E9480136C018091B4
:103E9000120181FF22C01F92FF9282EE9BE09F934E
:103EA0008F930E94FB11F8018381282F082E000CAC
:103EB000330B3F938F938281282F082E000C330BF6
:103EC0003F938F938FEC9BE09F938F930E940913F6
:103ED0000FB6F894DEBF0FBECDBF8F2D0E946A13C0
:103EE000882309F424CDF601A38586E0A89FD0019C
:103EF0001124A154BC4FF801329601900D928A957D
:103F0000E1F715CD809112018271B1F0DB011296BB
:103F10008C9112971F928F9311968C911F928F9371
:103F20008DEB9BE09F938F930E94FB110F900F905E
:103F30000F900F900F900F90F80183818230B8F0AE
:103F400087EB9BE09F938F930E94FB11D801139600
:103F50008C911F928F9388E89BE09F938F930E9490
:103F600009130F900F900F900F900F900F90F80182
:103F700082818130C9F480911201827141F081EB1C
:103F80009BE09F938F930E9409130F900F90D8018D
:103F900011961C91812F0E946A13882309F4C7CCC3
:103FA000812F0E94EF19C3CC823089F480911201D5
:103FB000827141F08CEA9BE09F938F930E940913DA
:103FC0000F900F900E94451AF8011181E3CF8330C2
:103FD00091F480911201827141F087EA9BE09F93F6
:103FE0008F930E9409130F900F90D80111968C9116
:103FF0000E94281A9CCC1F928F9389E99BE09F9383
:104000008F930E9409130F900F900F900F908FCCF9
:10401000FB011181812F8F778F37A1F412E0812F5F
:104020000E948013DC018C91813041F4812F0E9429
:104030006A13882319F0812F0E9491131F5F1D308E
:1040400071F775CC812F0E946A13882309F46FCC15
:10405000812F0E9491136BCCCB010E94A81A67CCD0
:10406000FB0181811F928F9389E79BE09F938F9340
:104070000E940913D80111968C910F900F900F9008
:104080000F9087FD8FE78093890483E080938804F5
:104090004ECC1F928FE08F931F936F9386E69BE029
:1040A0009F938F930E9409130F900F900F900F9082
:1040B0000F900F903CCC1F9283E08F931F936F93D0
:1040C0008FE49BE0EDCF1F9285E08F931F936F935A
:1040D00080E49BE0E5CF84E69DE09F938F930E9470
:1040E000FB111F92FF9288E89BE09F938F930E94A1
:1040F0000913DACFCF92DF92EF92FF921F93CF9303
:10410000DF93C82FD62F1F928F938CE29BE09F9353
:104110008F930E94FB1185E0E82E83E0F82E0F902C
:104120000F900F900F9010E096E1C92E9BE0D92ED2
:10413000D11318C00E94F610C63609F469C088F57C
:10414000C43509F498C0E8F4C13209F4B8C0C434E5
:10415000E1F08CE19BE09F938F930E9409130F90F5
:104160000F904CC0F70181917F011F928F93DF92D6
:10417000CF920E94FB111F5F0F900F900F900F9036
:10418000D7CFC336A1F1C43621F7809105039091B2
:104190001201C43409F03AC080958923809312013A
:1041A0002DC0CD3609F458C088F4C93609F446C08C
:1041B000CC3679F6C9E0DBE0FE018491882381F1F9
:1041C0008A3059F50E94F6102196F6CFC43709F4CB
:1041D00052C0C53709F466C0C23709F0BACF81E0D2
:1041E00090911903911180E08093190307C081E039
:1041F00090911A03911180E080931A03DF91CF917F
:104200001F91FF90EF90DF90CF900895892BC6CF3C
:104210008091050380939004F1CF0E94EF10D4CFDA
:104220000E94F610C2E08C2F0E948013BC018C2FDC
:104230000E946915CF5FCC30B1F7E0CFD530F0F6F2
:10424000809105039091060384369105B8F290930E
:10425000110180931001D2CF6D2F70E04FE157E034
:1042600085E093E0DF91CF911F91FF90EF90DF9079
:10427000CF900C946312D09105038D2F0E946A1386
:10428000882309F4BBCF112309F4B8CF8D2F0E94E6
:104290008013FC019081C43519F49F7B9083AECFCD
:1042A0009064FCCF65E073E080910503DF91CF91CE
:1042B0001F91FF90EF90DF90CF900C94411B85E011
:1042C00093E0DF91CF911F91FF90EF90DF90CF901F
:1042D0000C94A81AC82FD2E381E00E9480102FEF1F
:1042E0008AE693E0215080409040E1F700C0000052
:1042F000D15091F7CC2379F380E00E9413112FEF76
:1043000089E698E1215080409040E1F700C000002C
:1043100081EA0E9413112FEF89E698E12150804035
:104320009040E1F700C00000C150E4CF8F929F920F
:10433000AF92BF92CF92DF92EF92FF920F931F93B3
:10434000CF93DF937B01853009F0F2C086E0809344
:104350008304DB01DC90BCE0BD1508F05AC01F925D
:10436000DF9286EE9AE09F938F930E94FB11F701F4
:1043700080811F928F9388E89BE09F938F930E9488
:10438000091383E0809385048DB79EB708960FB616
:10439000F8949EBF0FBE8DBF8091210390E0909353
:1043A00087048093860480911201837001F18091CB
:1043B00084041F928F938AED9AE09F938F930E94BB
:1043C000FB11D7018C910E941112809185041F92DC
:1043D0008F938BEC9AE09F938F930E940913EDB714
:1043E000FEB738960FB6F894FEBF0FBEEDBF65E07E
:1043F00070E083E894E0DF91CF911F910F91FF90DF
:10440000EF90DF90CF90BF90AF909F908F900C94E3
:10441000211380912103811103C086E00E946A214B
:104420008150809321031091220381E0810F8093BA
:104430002203809122030E948013DC018C91811160
:104440003AC0812F0E948013EC01FC013B9602E0F0
:10445000AA24A394B12CAFE4B4E090E080E0C82E8D
:104460009D902FEF9216A1F130E020E0492D50E011
:10447000822EBA01022E02C0759567950A94E2F762
:1044800060FD21C02C2D220F220F220F280D815BF1
:104490009B4FA50101C0440F8A94EAF7942ADC01DE
:1044A0009C9221932F3FD1F4809121038F5F8093C1
:1044B000210387E0B3CF809122038C3010F68F5F09
:1044C000B6CF01E0C8CF2F5F3F4F2830310581F6CE
:1044D00001968330910519F62FEFE3CF013089F76C
:1044E0000883D9821F92DF921F921F9381EB9AE07B
:1044F0009F938F930E940913109384040F900F9041
:104500000F900F900F900F9082E01F3F19F02097AF
:1045100021F483E0809385043FCF00938504F70165
:10452000808189831B821A8280918904888734CF95
:104530001F928F9381EF9AE09F938F930E940913AC
:104540000F900F900F900F9052CFAF92BF92CF92DB
:10455000DF92EF92FF920F931F93CF93DF93CDB72C
:10456000DEB7AA970FB6F894DEBF0FBECDBFCDB6AB
:10457000DEB6E0E6F2E08091F100819342E0E836B9
:10458000F407C9F79091600280916102813019F0BF
:10459000833009F080C09F7D9138F9F4813009F0B3
:1045A00071C02091620230916302263089F1273078
:1045B00009F438C033273F932F938AE592E09F9305
:1045C0008F930E9409130F900F900F900F9066E049
:1045D00070E080E090E00E9483088091E80083FF13
:1045E00034C180916002909161029A3008F02DC12F
:1045F000E92FF0E0E250FD4D0C942636F8231E24FE
:1046000025241E2425248924AB242524472654262A
:1046100086E08093830483E894E065E070E00E9484
:104620002113D5CF97E090936D0480937C048AE0AA
:1046300080937B0480911F039091200390936F04DB
:1046400080936E041092710410927004109273049F
:10465000109272048EE08093740486E08093750457
:104660008093760485E08093770482E080937804D9
:10467000809379048DE080937A048DE694E060E184
:1046800070E0CDCF82E792E09F938F930E94091351
:104690000F900F909CCF2091E80023FF9ECF409178
:1046A000000120916402309165024217130609F05F
:1046B00094CF8930C1F1F0F4823009F484C08330A2
:1046C00009F08BCF913A09F088CF8091E800877F7D
:1046D0008093E8008091E80080FFFCCF8091090181
:1046E0008093F1008091E8008E778093E8000E942B
:1046F000D50F73CF8A3009F44CC08B3009F06DCFE1
:10470000913209F06ACF8091E800877F8093E800BA
:104710000E94D50F9091620281E0911101C080E06A
:10472000809309015ACF913209F057CFEDB6FEB60A
:104730006091660270916702B09062028DB79EB779
:10474000861B970B0FB6F8949EBF0FBE8DBF0DB79B
:104750001EB70F5F1F4F8091E800877F8093E800AE
:10476000C8010E94990E8091E8008E778093E8003E
:1047700061E070E0B11002C070E060E0600F711F96
:104780008B2D0E9496210FB6F894FEBE0FBEEDBE93
:1047900024CF913209F021CF8091E800877F809368
:1047A000E8000E94D50F8091620290916302B6E00A
:1047B00096958795BA95E1F78C7F937090930D014C
:1047C00080930C010ACF913A09F007CF8091E8005D
:1047D000877F8093E8008091E80080FFFCCF809184
:1047E0000C0190910D01969587959695879578CFB8
:1047F000803889F0823849F5809164028F70873063
:1048000020F58093E9008091EB0085FB882780F9F3
:104810001092E90006C08091C5029091C6029111E4
:1048200082609091E800977F9093E8008093F10078
:104830001092F1008091E8008E7739C0282F2D7FEB
:1048400021F4882331F18230B9F18091E80083FFAF
:104850000AC08091E800877F8093E8008091EB0098
:1048600080628093EB000FB6F894DEBE0FBECDBE23
:10487000AA960FB6F894DEBF0FBECDBFDF91CF91E1
:104880001F910F91FF90EF90DF90CF90BF90AF906E
:104890000895809162028130C1F6933009F080E082
:1048A0008093C6021092E9008091E800877F809390
:1048B000E8000E94D50FC9CF809162028111F2CF2A
:1048C000809164028F702FEF280F263008F0BDCF43
:1048D0008093E9002091EB0020FFE4CF933031F486
:1048E0008091EB0080628093EB00DCCF9091EB0035
:1048F00090619093EB0021E030E001C0220F8A9597
:10490000EAF72093EA001092EA008091EB008860B9
:10491000EACF81119ACF109162021F778091E30054
:104920008078812B8093E3008091E800877F8093DB
:10493000E8000E94D50F8091E80080FFFCCF8091B5
:10494000E30080688093E30083E0111101C082E0FE
:104950008093EF027ACF8058823008F076CFE090D3
:104960006202F09063029CEDE91693E0F906A1F56E
:1049700083E08A838AE289834FB7F894DE01139635
:1049800020E03EE051E2E32FF0E050935700E49145
:1049900020FF03C0E295EF703F5FEF708E2F90E035
:1049A000EA30C0F0C7968D939D932F5F243159F75D
:1049B0004FBF8091E800877F8093E8006AE270E053
:1049C000CE0101960E94D40E8091E8008B778093EF
:1049D000E8003BCFC096E7CFA0906402B09065029C
:1049E0000F2D11278091120186FF7CC1C7019927E5
:1049F0009F938F931F930F9388E998E09F938F93D2
:104A00000E94FB110F900F900F900F900F900F903E
:104A10000330110509F45AC080F40130110581F109
:104A20000230110509F43FC089EB97E09F938F9303
:104A30000E94FB110F900F9066C00132110509F41E
:104A4000CAC00232110509F4D9C00430110561F75A
:104A50008091120186FF08C088EC97E09F938F93A6
:104A60000E94FB110F900F9009E010E087E8E82EFC
:104A700087E0F82EAB2809F452C0F12CE12C4FC08E
:104A80008091120186FF08C08EE898E09F938F9373
:104A90000E94FB110F900F9002E110E047EAE42E14
:104AA00047E0F42E3CC08091120186FF08C086E8E2
:104AB00098E09F938F930E94FB110F900F9009E253
:104AC00010E03EE7E32E37E0F32E29C0809112017B
:104AD00086FF08C08CE798E09F938F930E94FB119C
:104AE0000F900F90FF24E1E0EE16F10409F455C099
:104AF00068F042E0E416F10409F459C083E0E816D6
:104B0000F10409F45EC010E000E0B7CFE8E7F8E098
:104B1000E4910E2F10E0E8E7EE2EE8E0FE2E809103
:104B2000120186FF0CC01F930F9389E892E09F93B8
:104B30008F930E9409130F900F900F900F9061E0D8
:104B400070E080E090E00E9483080115110509F4EF
:104B50007CCE8091E800877F8093E8008091660298
:104B6000909167020817190708F4C80140E0009700
:104B700009F057C0411155C08091E80082FD24CF53
:104B80008091EF02882309F41FCF853009F41CCFF0
:104B90008091E80083FFF0CF17CFE0E5F8E0E491E3
:104BA0000E2F10E070E5E72E78E0F72EB8CFE2E0A8
:104BB000F8E0E4910E2F10E062E0E62E68E0F62EB9
:104BC000AECFE8EEF7E0E4910E2F10E058EEE52EC0
:104BD00057E0F52EA4CF8091120186FF08C080EE29
:104BE00097E09F938F930E94FB110F900F9009E025
:104BF00010E020E9E22E27E0F22E91CF8091120101
:104C000086FF08C085ED97E09F938F930E94FB116C
:104C10000F900F900CEE14E092E9E92E92E0F92E3D
:104C20007ECF2091EF02222309F4CECE253009F465
:104C3000CBCE2091E80023FDC7CE2091E80022FDD5
:104C40009BCF2091E80020FF92CF2091F30030917C
:104C5000F200232732272327009719F02830310547
:104C600058F041E02830310509F040E02091E8009B
:104C70002E772093E8007BCFF70144914093F10019
:104C8000FFEFEF1AFF0A01972F5F3F4FE5CF803804
:104C900009F0DBCD8091E800877F8093E800809168
:104CA000C7028093F100C6CD8111CFCD1091620271
:104CB000123008F0CACD8091E800877F8093E80029
:104CC0001093C7020E94D50F112331F084E0809326
:104CD000EF020E940317B9CD8091E30087FDF6CF64
:104CE00081E0F5CF0330110509F4F0CE08F495CE3C
:104CF0000132110509F46FCF0232110509F47ECF9C
:104D00000430110509F090CEAFCE1F920F920FB66E
:104D10000F9211242F933F934F935F936F937F9341
:104D20008F939F93AF93BF93EF93FF9385EE94E0A0
:104D30000E94A007FF91EF91BF91AF919F918F913A
:104D40007F916F915F914F913F912F910F900FBE87
:104D50000F901F9018951F920F920FB60F9211246B
:104D60002F938F939F93EF93FF93E091F504F0912E
:104D7000F6048081E091FB04F091FC0482FD1BC0ED
:104D800090818091FE048F5F8F732091FF048217C2
:104D900041F0E091FE04F0E0EB51FB4F958F8093E2
:104DA000FE04FF91EF919F918F912F910F900FBE75
:104DB0000F901F9018958081F4CF1F920F920FB61D
:104DC0000F9211242F933F938F939F93AF93BF9391
:104DD0008091B9029091BA02A091BB02B091BC023D
:104DE0003091B80223E0230F2D3758F50196A11D0D
:104DF000B11D2093B8028093B9029093BA02A09398
:104E0000BB02B093BC028091BD029091BE02A09102
:104E1000BF02B091C0020196A11DB11D8093BD02D9
:104E20009093BE02A093BF02B093C002BF91AF9116
:104E30009F918F913F912F910F900FBE0F901F90D8
:104E4000189526E8230F0296A11DB11DD2CF1F92FF
:104E50000F920FB60F9211242F933F934F935F93AE
:104E60006F937F938F939F93AF93BF93EF93FF9332
:104E7000E091C302F091C402309749F0A685B7854E
:104E80008585968D91FF14C09C918923A1F4FF9193
:104E9000EF91BF91AF919F918F917F916F915F91B2
:104EA0004F913F912F910F900FBE0F901F9018952B
:104EB0009C91892361F7A389B4899C918589809508
:104EC00089238C93868997890197F1F7608D718D7D
:104ED000A685B785558538E020E0CB010197F1F72D
:104EE000822F90E095958795282F4C91452309F0C6
:104EF0002068315091F7868D81FD20958091C20206
:104F000090E001968F7399273091C102381799F07C
:104F1000A091C202B0E0A858BD4F2C938093C2026A
:104F2000828D938D0197F1F7A389B4898C9195892E
:104F3000892B8C93ACCF868D8160868FF1CF1F92A9
:104F40000F920FB60F9211242F933F934F935F93BD
:104F50006F937F938F939F93AF93BF93CF93EF9371
:104F6000FF93C091E900CF708091EC001092E900AE
:104F70008091F000877F8093F00078940E94A522B2
:104F80001092E9008091F00088608093F000C09357
:104F9000E900FF91EF91CF91BF91AF919F918F91D8
:104FA0007F916F915F914F913F912F910F900FBE25
:104FB0000F901F9018951F920F920FB60F92112409
:104FC0002F933F934F935F936F937F938F939F9311
:104FD000AF93BF93EF93FF938091E10082FF09C0ED
:104FE0008091E20082FF05C08091E1008B7F809379
:104FF000E1008091DA0080FF2EC08091D80080FF10
:105000002AC08091DA008E7F8093DA008091D900E7
:1050100080FFA3C080E189BD82E189BD09B400FEA3
:10502000FDCF81E08093EF028091120186FF08C0DE
:105030008AEB98E09F938F930E9409130F900F9033
:1050400080911D0390911E03836190931E038093B2
:105050001D031092EE028091E10080FF17C0809145
:10506000E20080FF13C08091E2008E7F8093E20017
:105070008091E20080618093E2008091D80080629C
:105080008093D80019BC85E08093EF028091E10005
:1050900084FF27C08091E20084FF23C080E189BDA6
:1050A00082E189BD09B400FEFDCF8091D8008F7DDB
:1050B0008093D8008091E1008F7E8093E100809101
:1050C000E2008F7E8093E2008091E2008160809315
:1050D000E2008091C702882309F44FC084E08093E6
:1050E000EF028091E10083FF27C08091E20083FFFF
:1050F00023C08091E100877F8093E10082E080936C
:10510000EF021092C7028091E1008E7F8093E10050
:105110008091E2008E7F8093E2008091E2008061C6
:105120008093E20042E060E080E00E94F40F809112
:10513000F00088608093F000FF91EF91BF91AF91F4
:105140009F918F917F916F915F914F913F912F919F
:105150000F900FBE0F901F90189519BC1092EF0280
:105160008091120186FF77CF88EC98E09F938F9310
:105170000E9409130F900F906ECF8091E30087FD7E
:1051800002C081E0ACCF83E0AACF282F30E0F90144
:10519000E95AF64F9491F901E257F24F849121595F
:1051A000324FF9012491222309F430C09923E9F008
:1051B00091509F30D0F4E92FF0E0EF51F74D0C946F
:1051C00026360F291329F02807290B29F528F52859
:1051D000F52816291C29202924292A29F5282E29D1
:1051E000909180009F7790938000E22FF0E0EE0F87
:1051F000FF1FE355F24FA591B4919FB7F894EC913E
:10520000611132C080958E238C939FBF0895909139
:1052100080009F7DE8CF90918000977FE4CF94B588
:105220009F7794BDE2CF94B59F7DFBCF9091900086
:105230009F7790939000D9CF909190009F7DF9CF68
:1052400090919000977FF5CF9091C0009F779093B9
:10525000C000CBCF9091C0009F7DF9CF9091C2004C
:10526000977F9093C200C1CF8E2BCECFDC01E0EAB6
:10527000FDE094919C93E1E8FDE0249111962C933C
:10528000119730E0220F331FF901E355F24F45919A
:10529000549113965C934E931297F901E554F24F93
:1052A000A591B491EC91E92BEC930895CF92DF9204
:1052B000EF92FF921092E8041092E70498EEC92E44
:1052C00093E0D92EE12CF12CC092E904D092EA04AB
:1052D000E092EB04F092EC048AE791E09093E6040C
:1052E0008093E5048DEC90E09093F2048093F104B8
:1052F0008CEC90E09093F4048093F30488EC90E0BD
:105300009093F6048093F50489EC90E09093F80470
:105310008093F7048AEC90E09093FA048093F90468
:105320008EEC90E09093FC048093FB041092FE04BA
:105330001092FF04109200051092010585EA95E095
:105340000E943629E1EAFDE024912093A105E2E8DC
:10535000FDE084918093A20590E0880F991FFC01E5
:10536000E355F24F459154915093A4054093A30502
:10537000FC01E554F24FA591B491EC91E22BEC9332
:105380001092850510928405C0928605D0928705FB
:10539000E0928805F09289058CE891E0909383056E
:1053A00080938205109299051092980510929B05A2
:1053B00010929A0510929D0510929C0510929F05DF
:1053C00010929E056091A0056E7F6D7F6093A00591
:1053D0006695617081E0682785E00E94C52861E0DC
:1053E00085E00E942D08E3E9FDE0E491E093920559
:1053F000E4E7FDE0E491F0E0EE0FFF1FE355F24F2C
:1054000085919491909394058093930560E089E051
:105410000E942D088091A00581FD04C061E089E013
:105420000E94C52889E080938E05E7E9FDE0E491BC
:10543000E0938F05E8E7FDE0E491F0E0EE0FFF1F59
:10544000E753F24F85919491909391058093900545
:105450008EE991E09093AA058093A905E8E9FDE023
:1054600024912093AB05E9E7FDE084918093AC059E
:1054700090E0880F991FFC01E753F24F459154913A
:105480005093AE054093AD05FC01E554F24FA59154
:10549000B4918C91E22FE095E823EC93E091AC0578
:1054A000F0E0EE0FFF1FE355F24FA591B4918C9100
:1054B0009091AB05892B8C93E6E9FDE02491209334
:1054C000AF05E7E7FDE084918093B00590E0880F99
:1054D000991FFC01E753F24F459154915093B20547
:1054E0004093B105FC01E554F24FA591B4918C9124
:1054F000E22FE095E823EC93E091B005F0E0EE0FA9
:10550000FF1FE355F24FA591B4918C919091AF0597
:10551000892B8C93EEE9FDE024912093B305EFE70E
:10552000FDE084918093B40590E0880F991FFC0101
:10553000E753F24F459154915093B6054093B5050A
:10554000FC01E554F24FA591B4918C91E22FE095C6
:10555000E823EC93E091B405F0E0EE0FFF1FE35574
:10556000F24FA591B4918C919091B305892B8C93B6
:10557000E5E9FDE024912093B705E6E7FDE084919D
:105580008093B80590E0880F991FFC01E753F24F14
:10559000459154915093BA054093B905FC01E554E7
:1055A000F24FA591B4918C91E22FE095E823EC9312
:1055B000E091B805F0E0EE0FFF1FE355F24FA59123
:1055C000B4918C919091B705892B8C938BEB95E0DE
:1055D0000E9436291092C0051092BF051092D40582
:1055E0001092D305E1ECF5E080E1DF011D928A9590
:1055F000E9F71092D2051092D1051092D6051092BB
:10560000D5051092D705E8EDF5E084E4DF011D92A1
:105610008A95E9F710921C068EEA91E09093AA050C
:105620008093A90510921D06FF90EF90DF90CF9018
:105630000895CF93DF93CDB7DEB760970FB6F89498
:10564000DEBF0FBECDBF789484B5826084BD84B5C3
:10565000816084BD85B5826085BD85B5816085BD6D
:1056600080916E00816080936E0010928100809125
:1056700081008260809381008091810081608093AD
:1056800081008091800081608093800080919100F2
:10569000826080939100809191008160809391005D
:1056A000809190008160809390008091C10084601F
:1056B0008093C1008091C10082608093C10080917D
:1056C000C10081608093C1008091C300816080939C
:1056D000C3008091C00082608093C0008091C200AE
:1056E00081608093C20080917A00846080937A0008
:1056F00080917A00826080937A0080917A00816044
:1057000080937A0080917A00806880937A0084B7D1
:10571000877F84BF0FB6F894A89580916000886158
:1057200080936000109260000FBE80E830E020E0BF
:105730000FB6F89480936100209361000FBE60E083
:1057400089E00E942D0861E085E00E942D08209AE2
:105750002898559A5D983F9A479815E081E00E94F5
:10576000720962E370E080E090E00E94830881E0CB
:105770000E94720964E670E080E090E00E94830875
:10578000115061F7789410929D0510929C0510922B
:105790009B0510929A0510929905109298058DE735
:1057A00090E090939F0580939E0580918E0528EF51
:1057B000280F243048F092EF980F943028F096EE9E
:1057C000980F933008F057C04DE250E05093990580
:1057D000409398054BE750E050939B0540939A0502
:1057E00044E550E050939D0540939C05243050F0D3
:1057F00092EF980F943030F096EE980FF0E0E0E0E2
:10580000933010F4E8E6F0E09081243048F022EF85
:10581000280F243028F08A51F0E0E0E0833010F4C3
:10582000E8E6F0E09160908320918E0538EF320F2A
:10583000343048F082EF820F843028F086EE820FF9
:10584000833008F00CC18BE690E09093960580932E
:105850009505343008F006C12450330B81E001C0B7
:10586000880F2A95EAF78093970580919E0590917D
:105870009F050197F1F780919C0590919D05892BDB
:1058800049F1E091C302F091C40225E0E238F20749
:1058900009F1309739F0A389B4899C918589809565
:1058A00089238C938091A0058E7F8093A005109210
:1058B000C2021092C10282E895E09093C4028093E4
:1058C000C302E0919505F09196058081909197052E
:1058D000892B8083E091F504F091F60482E08083C7
:1058E000E091F104F091F2041082E091F304F09160
:1058F000F40480E180831092FD04E091F904F091BA
:10590000FA0486E08083E091F704F091F804808146
:1059100080618083E091F704F091F80480818860D1
:105920008083E091F704F091F8048081806880839F
:10593000E091F704F091F80480818F7D808384EDFD
:1059400091E00E9423118091D8008F7E8093D8002F
:105950008091D70081608093D70084E082BF81E08E
:105960008093C8028091D8008E7F8093D8001092D7
:10597000E2001092DA001092E1008091D8008F7757
:105980008093D8008091D80080688093D80080915F
:10599000D8008F7D8093D80019BC1092EF0210922E
:1059A000C7021092C6021092C5028091E0008B7F60
:1059B0008093E0008091D80081608093D80042E01D
:1059C00060E080E00E94F40F8091E1008E7F809380
:1059D000E1008091E20081608093E2008091E2002A
:1059E00088608093E2008091E0008E7F8093E000E9
:1059F0008091D80080618093D8000E94401189EA8C
:105A000095E00E94BE18AE014F5751095D874C8743
:105A10000E94B5086B017C010E94B5082B013C0176
:105A20000E94B5084B015C0185EE94E00E9480075E
:105A3000892B89F185EE94E00E945E079091C9025E
:105A4000911173C220E0E22FF0E0EB56F64FE491A3
:105A50008E17D9F0EE2309F468C22F5FF4CF90E0DF
:105A600080E0F3CE88E02E3009F4FDCE82E02F30C6
:105A700009F4F9CE84E0203109F4F5CE81E021313A
:105A800009F4F1CE2651330BE9CE882309F44DC237
:105A900060E00E947A208091CA029091CB02A0918E
:105AA000CC02B091CD02B501A401481B590B6A0B81
:105AB0007B0B8091100190911101B0E0A0E048179C
:105AC00059076A077B0708F48CC012E0812F0E94F7
:105AD0008013FC01208126FF04C0BC01812F0E949D
